:100000000C94E0000C9408010C9408010C943C053D
:100010000C943C050C943C050C94B4050C9408011C
:100020000C9408010C9408010C9408010C9408012C
:100030000C9408010C9408010C9408010C9408011C
:100040000C94F2040C9408010C94C0040C949A04CF
:100050000C9408010C9408010C9408010C940801FC
:100060000C9408010C94080100407A10F35A00A087
:10007000724E18090010A5D4E80000E87648170071
:1000800000E40B54020000CA9A3B000000E1F505B1
:10009000000080969800000040420F000000A086FB
:1000A00001000000102700000000E803000000002D
:1000B0006400000000000A000000000001000000D1
:1000C00000002C76D888DC674F0823DFC1DFAE59EB
:1000D000E1B1B796E5E3E453C63AE651997696E87E
:1000E000E6C28426EB898C9B62ED407C6FFCEFBC02
:1000F0009C9F40F2BAA56FA5F490055A2AF75C932D
:100100006B6CF9676DC11BFCE0E40D47FEF520E662
:10011000B500D0ED902E0300943577050080841E45
:10012000080000204E0A000000C80C333333330FA0
:10013000986E12831141EF8D2114893BE65516CF3D
:10014000FEE6DB18D1844B381BF77C1D901DA4BB49
:10015000E424203284725E228100C9F124ECA1E5FE
:100160003D2700000000240027002A0000000008AE
:10017000000201000003040700000000000000006E
:1001800000000000230026002900000000002500D8
:1001900028002B00040404040404040402020202E4
:1001A000020203030303030301020408102040803A
:1001B000010204081020010204081020CB05E50804
:1001C00011241FBECFEFD8E0DEBFCDBF22E0A4E3F5
:1001D000B1E001C01D92AF35B207E1F711E0A0E038
:1001E000B1E0E8EDFEE102C005900D92A433B10745
:1001F000D9F710E0CFEDD0E004C02197FE010E94B6
:10020000670DCE3DD107C9F70E9476060C945F0FAB
:100210000C9400000F931F93CF93DF93EC01FB012D
:100220004481558160817181E881F9810280F38187
:10023000E02D09958C01E881F9810280F381E02DA0
:1002400042E050E06CE271E0CE010995800F911F11
:10025000DF91CF911F910F910895AF92BF92CF92EE
:10026000DF92EF92FF920F931F93CF93DF936C0176
:100270007B018B01040F151FEB015E01AE18BF0857
:10028000C017D10759F06991D601ED91FC91019009
:10029000F081E02DC6010995892B79F7C501DF9121
:1002A000CF911F910F91FF90EF90DF90CF90BF9073
:1002B000AF900895FC01538D448D252F30E0842F9D
:1002C00090E0821B930B541710F0CF96089501977E
:1002D0000895FC01918D828D981761F0A28DAE0F6B
:1002E000BF2FB11D5D968C91928D9F5F9F73928FF2
:1002F00090E008958FEF9FEF0895FC01918D828D1E
:10030000981731F0828DE80FF11D858D90E00895EA
:100310008FEF9FEF0895FC01918D228D892F90E042
:10032000805C9F4F821B91098F73992708958FE9F5
:1003300091E00E948B0121E0892B09F420E0822FBB
:10034000089580E090E0892B29F00E9497018111A7
:100350000C9400000895FC01A48DA80FB92FB11DC5
:10036000A35ABF4F2C91848D90E001968F739927EB
:10037000848FA689B7892C93A089B1898C918370C9
:1003800080648C93938D848D981306C00288F389C2
:10039000E02D80818F7D80830895EF92FF920F93EF
:1003A0001F93CF93DF93EC0181E0888F9B8D8C8D21
:1003B00098131AC0E889F989808185FF15C09FB715
:1003C000F894EE89FF896083E889F98980818370D8
:1003D000806480839FBF81E090E0DF91CF911F9187
:1003E0000F91FF90EF900895F62E0B8D10E00F5FA8
:1003F0001F4F0F731127E02E8C8D8E110CC00FB67E
:1004000007FCFACFE889F989808185FFF5CFCE0115
:100410000E94AB01F1CFEB8DEC0FFD2FF11DE35AE4
:10042000FF4FF0829FB7F8940B8FEA89FB89808198
:100430008062CFCFCF93DF93EC01888D8823B9F012
:10044000AA89BB89E889F9898C9185FD03C08081DF
:1004500086FD0DC00FB607FCF7CF8C9185FFF2CF5C
:10046000808185FFEDCFCE010E94AB01E9CFDF9106
:10047000CF91089590E0FC01E459FE4F2491FC01D6
:10048000E855FE4F3491FC01EC56FE4FE491EE230B
:10049000C9F0222339F0233001F1A8F4213019F1F9
:1004A000223029F1F0E0EE0FFF1FE657FE4FA59135
:1004B000B4918FB7F894EC91611126C030953E232A
:1004C0003C938FBF08952730A9F02830C9F024301D
:1004D00049F7809180008F7D03C0809180008F77E5
:1004E00080938000DFCF84B58F7784BDDBCF84B568
:1004F0008F7DFBCF8091B0008F778093B000D2CFFB
:100500008091B0008F7DF9CF3E2BDACFCF93DF9370
:1005100090E0FC01E855FE4F24918C569E4FFC0163
:1005200084918823D1F090E0880F991FFC01EE5947
:10053000FE4FA591B491FC01E657FE4FC591D491B1
:1005400061110EC09FB7F8948C91E22FE0958E2335
:100550008C932881E223E8839FBFDF91CF91089598
:100560008FB7F894EC91E22BEC938FBFF6CF8E50BF
:10057000806480937C0080917A00806480937A000C
:1005800080917A0086FDFCCF80917800909179006F
:1005900008953FB7F8948091790190917A01A091E4
:1005A0007B01B0917C0126B5A89B05C02F3F19F0B7
:1005B0000196A11DB11D3FBFBA2FA92F982F8827E3
:1005C000BC01CD01620F711D811D911D42E0660FBE
:1005D000771F881F991F4A95D1F708958F929F9290
:1005E000AF92BF92CF92DF92EF92FF920E94C90228
:1005F0004B015C0184E6C82ED12CE12CF12C0E9429
:10060000C902681979098A099B09683E7340810506
:100610009105A8F321E0C21AD108E108F10888EE9B
:10062000880E83E0981EA11CB11CC114D104E10402
:10063000F10429F7FF90EF90DF90CF90BF90AF903B
:100640009F908F90089520917F013091800128170D
:10065000390771F490917D0180917E01981741F0E6
:10066000E0917D01F0E0EC5CFE4F808190E0089528
:100670008FEF9FEF08950895EF92FF920F931F93CE
:10068000CF93DF93DC015C96ED90FC905D97E114D5
:10069000F10479F481E090E013969C938E93129785
:1006A00090E080E0DF91CF911F910F91FF90EF904C
:1006B00008955196ED91FC91529750968C915097D8
:1006C000982F90950FB75E962C915E97122F12700F
:1006D00021FD6095F8942081112319F1282B2083A6
:1006E000E7012197F1F728E0462F50E0308160FFC5
:1006F0001AC0382B3083E7012197F1F7BA017595BD
:100700006795215089F7112381F0808189238083A7
:100710000FBF5C968D919C910197F1F781E090E07D
:10072000C1CF2923DCCF3923E5CF9081892BEFCFAF
:1007300020917F01309180012817390761F4809161
:100740007E0120917D0190E0805C9F4F821B91098A
:100750008F739927089590E080E0089520917F019C
:100760003091800128173907B9F490917D0180916B
:100770007E01981789F0E0917D01F0E0EC5CFE4F7E
:10078000808120917D0130E02F5F3F4F2F73332711
:1007900020937D0190E008958FEF9FEF089590E002
:1007A00080E00895CF93DF93EC01888199810097D1
:1007B00011F00E94090E198218821D821C821B8270
:1007C0001A82DF91CF910895FC0180819181009779
:1007D00011F00C94090E08950F931F93CF93DF939C
:1007E000EC0188819981009759F02A813B81261775
:1007F000370730F081E0DF91CF911F910F9108957D
:100800008B016F5F7F4F0E94920E009759F0998382
:1008100088831B830A832C813D81232B59F7FC019C
:100820001082E8CF80E0E7CFEF92FF920F931F9303
:10083000CF93DF936115710541F480E0DF91CF9193
:100840001F910F91FF90EF90089541155105B1F060
:100850007B01EC010C811D81040F151FB8010E9462
:10086000EC03882351F3288139818C819D81B70164
:10087000820F931F0E94580F1D830C8381E0DECFEF
:10088000CF93DF93EC01FB0101900020E9F7319752
:10089000AF01461B570B0E941404811103C0CE0107
:1008A0000E94D203CE01DF91CF910895CF93DF93C1
:1008B000EC01FB0144815581608171810E94140427
:1008C000811103C0CE010E94D203CE01DF91CF91EE
:1008D0000895EF92FF920F931F93CF93DF93EC0154
:1008E0007B01198218821B821A821D821C82FB01E5
:1008F00001900020E9F731978F01061B170BB80113
:100900000E94EC03811109C0CE01DF91CF911F91AC
:100910000F91FF90EF900C94D2031D830C83B701CD
:1009200088819981DF91CF911F910F91FF90EF9076
:100930000C94580F1F920F920FB60F9211242F9301
:100940003F934F935F936F937F938F939F93AF9357
:10095000BF93EF93FF938FE991E00E94AB01FF916A
:10096000EF91BF91AF919F918F917F916F915F9127
:100970004F913F912F910F900FBE0F901F901895A0
:100980001F920F920FB60F9211242F938F939F9364
:10099000EF93FF93E091AF01F091B0018081E0917E
:1009A000B501F091B60182FD1BC090818091B80124
:1009B0008F5F8F732091B901821741F0E091B801E8
:1009C000F0E0E156FE4F958F8093B801FF91EF91D3
:1009D0009F918F912F910F900FBE0F901F901895A0
:1009E0008081F4CF1F920F920FB60F9211242F9394
:1009F0003F938F939F93AF93BF9380917501909195
:100A00007601A0917701B09178013091740123E0D3
:100A1000230F2D3758F50196A11DB11D20937401A8
:100A20008093750190937601A0937701B09378013C
:100A30008091790190917A01A0917B01B0917C0124
:100A40000196A11DB11D8093790190937A01A09325
:100A50007B01B0937C01BF91AF919F918F913F91AA
:100A60002F910F900FBE0F901F90189526E8230F1F
:100A70000296A11DB11DD2CF1F920F920FB60F92F9
:100A800011242F933F934F935F936F937F938F9393
:100A90009F93AF93BF93EF93FF93E0917F01F0910A
:100AA0008001309749F0A685B7858585968D91FFA1
:100AB00014C09C918923A1F4FF91EF91BF91AF9154
:100AC0009F918F917F916F915F914F913F912F9166
:100AD0000F900FBE0F901F9018959C91892361F77E
:100AE000A389B4899C918589809589238C93868973
:100AF00097890197F1F7608D718DA685B78555852A
:100B000038E020E0CB010197F1F7822F90E0959536
:100B10008795282F4C91452309F02068315091F793
:100B2000868D81FD209580917E0190E001968F73E6
:100B3000992730917D01381799F0A0917E01B0E09E
:100B4000AC5CBE4F2C9380937E01828D938D019778
:100B5000F1F7A389B4898C919589892B8C93ACCFBB
:100B6000868D8160868FF1CF1F920F920FB60F9204
:100B700011248F939F938091000190910101019620
:100B800090930101809300019F918F910F900FBE70
:100B90000F901F9018951092A2011092A10188EE5B
:100BA00093E0A0E0B0E08093A3019093A401A09310
:100BB000A501B093A6012CE031E03093A001209371
:100BC0009F0125EC30E03093AC012093AB0124EC85
:100BD00030E03093AE012093AD0120EC30E0309353
:100BE000B0012093AF0121EC30E03093B2012093AB
:100BF000B10122EC30E03093B4012093B30126EC34
:100C000030E03093B6012093B5011092B8011092F4
:100C1000B9011092BA011092BB0110923F021092DA
:100C20003E028093400290934102A0934202B0930F
:100C300043028EE191E090933D0280933C0210923A
:100C400053021092520210925502109254021092C6
:100C50005702109256021092590210925802609157
:100C60005A026E7F6D7F60935A026695617081E0D3
:100C7000682783E00E943A0261E083E00E948602D6
:100C8000EBEAF1E0E491E0934C02E7E9F1E0E49172
:100C9000F0E0EE0FFF1FE657FE4F85919491909381
:100CA0004E0280934D0260E082E00E9486028091B5
:100CB0005A0281FD04C061E082E00E943A0282E0B3
:100CC00080934802EAEAF1E0E491E0934902E6E920
:100CD000F1E0E491F0E0EE0FFF1FE058FE4F859148
:100CE000949190934B0280934A020895CF93DF939F
:100CF000CDB7DEB76E970FB6F894DEBF0FBECDBF8F
:100D0000789484B5826084BD84B5816084BD85B5E6
:100D1000826085BD85B5816085BD80916E008160F2
:100D200080936E0010928100809181008260809398
:100D3000810080918100816080938100809180009A
:100D40008160809380008091B10084608093B100C5
:100D50008091B00081608093B00080917A008460BF
:100D600080937A0080917A00826080937A008091EB
:100D70007A00816080937A0080917A008068809305
:100D80007A001092C10061E084E00E94860261E076
:100D900085E00E94860261E08BE00E94860260E0AE
:100DA00084E00E943A0260E085E00E943A0261E03D
:100DB0008BE00E943A0261E08DE00E948602E091A1
:100DC000AF01F091B00182E08083E091AB01F0913E
:100DD000AC011082E091AD01F091AE018FEC808307
:100DE0001092B701E091B301F091B40186E08083E5
:100DF000E091B101F091B201808180618083E09146
:100E0000B101F091B201808188608083E091B101ED
:100E1000F091B201808180688083E091B101F0910E
:100E2000B20180818F7D808310925702109256020A
:100E300010925502109254021092530210925202D4
:100E40008DE991E090935902809358029091480265
:100E5000963108F047C02DEB30E0309353022093D9
:100E600052022BE931E030935502209354022CE2D8
:100E700031E030935702209356022091680084E0BD
:100E8000983048F031E09E3008F430E081E001C055
:100E9000880F3A95EAF7822B809368002DE630E0C0
:100EA000983050F02BE630E09E3030F02CE630E009
:100EB000963110F030E020E03093500220934F0242
:100EC000292F30E0983008F06BC181E001C0880F15
:100ED0009A95EAF7809351028091580290915902B5
:100EE0000197F1F78091560290915702892B49F1B1
:100EF000E0917F01F091800182E0EC33F80709F185
:100F0000309739F0A389B4899C918589809589238C
:100F10008C9380915A028E7F80935A0210927E01A8
:100F200010927D018CE392E09093800180937F0189
:100F3000E0914F02F0915002808190915102892BF3
:100F4000808384B7877F84BF8091600088618093AD
:100F5000600081E2809360008091600080648093F3
:100F600060000E94EE027E01E9E1EE0EF11C90E0CD
:100F7000A92E90E0B92E80E3782E80910001909107
:100F800001018B34910509F0FFC01BB861E08BE0D3
:100F90000E943A020E94EE028EE00E94B7028C018B
:100FA0008FE00E94B7024C0180E10E94B7026C0101
:100FB000B801110F880B990B0E94580B20E030EC00
:100FC0004FE754E40E94F50C2AE037ED43E25DE37D
:100FD0000E94880C2CEB34E743E15CE30E94F50CA3
:100FE00026E636E646E850E40E94890C05E911E061
:100FF00022E046E00E940109B401990C880B990B8C
:101000000E94580B20E030EC4FE754E40E94F50CAE
:101010002AE037ED43E25DE30E94880C2CEB34E7D5
:1010200043E15CE30E94F50C26E636E646E850E430
:101030000E94890C0BE811E022E046E00E940109C1
:10104000B601DD0C880B990B0E94580B29E93BEB8C
:1010500046E95BE30E94930B22E539E44DE15CE352
:101060000E94880C01E811E022E044E00E9401099E
:10107000B801CE0143960E9469046BE871E0CE018D
:101080000D960E94690465E971E0CE0107960E9401
:1010900069046FE271E0CE0101960E946904BE010D
:1010A000695F7F4FCE0101960E94560461E371E0B3
:1010B0000E944004BE01635F7F4F0E94560461E3BB
:1010C00071E00E944004BE016D5E7F4F0E94560495
:1010D0006FE271E00E9440041A8E198E1C8E1B8EE6
:1010E0001E8E1D8E8E159F0589F0FC0100811181D9
:1010F0000115110559F0C480D580B601C7010E94C1
:10110000EC0381115AC0C7010E94D203CE0101969F
:101110000E94E403CE0107960E94E403CE010D96DF
:101120000E94E403CE0143960E94E403B7018FE9D5
:1011300091E00E940A01B7018CE392E00E940A014B
:101140000E94EE027BB860E08BE00E943A021092AF
:1011500001011092000183B7817F866083BF83B74E
:10116000816083BF83B7816083BF889583B78E7F9B
:1011700083BF83B78E7F83BF80916400807180932B
:101180006400C7010E94E403A114B10409F4F5CE80
:101190000E949701882309F4F0CE0E940000EBCE54
:1011A0009E3040F42850310981E001C0880F2A9513
:1011B000EAF790CE2E503109F7CFDE8ECD8EB801F2
:1011C000898D9A8D0E94580FA1CF8EE191E0909366
:1011D0003D0280933C0280917F01909180018C536D
:1011E000924071F4E0914F02F09150029081809111
:1011F00051028095892380831092800110927F0193
:101200000895EF920F931F93CF93DF93E80134E09B
:1012100047FD34E1042E000C550B57FF03C05195D8
:1012200041955109E32E022F242FAE010E941F0980
:10123000CE01DF91CF911F910F91EF900895A9E01A
:10124000B0E0E5E2F9E00C94570C6A01F22EB02E02
:10125000102FFBE3AF2EA01608F41BE31F5F012F36
:1012600027E0AE014F5F5F4F0E947E0ABC0189817B
:10127000982F9970913009F43FC09BE2E1FC04C0C3
:101280009E2D9170E0FC3AC05E2D5071E82FE87001
:1012900083FF46C084E0911101C083E0EF2DE81B7D
:1012A0008F1508F0E0E0D6018E2F20E2552351F192
:1012B000992329F0D6019C93C60101966C019601F1
:1012C0002D5F3F4FE2FE24C08EE4D6018C9391E463
:1012D00011969C93119712968C93D9018E2F90E2C0
:1012E00081111BC0E20FF32FF11D10828EEF9FEFD3
:1012F0002996ECE00C94730C9DE2C6CF90E2C4CF2B
:101300002D9381508111FCCFCE0ED11CE0E0D0CFC7
:101310008EE6D6018C9391E6DBCF9D938150E0CF92
:10132000482F447082FF3DC084E0911101C083E0EA
:101330008F1510F4EF2DE81BD6018E2F20E25523D8
:1013400009F1992329F0D6019C93C60101966C01FD
:1013500096012D5F3F4FE2FE1BC089E4D6018C93BE
:101360008EE411968C93119786E412968C93D90192
:101370008E2F90E2882309F4B5CF9D938150FACF48
:101380002D9381508111FCCFCE0ED11CE0E0D9CF3E
:1013900089E6D6018C938EE611968C93119786E69A
:1013A000E4CF9B0177FF02C030E020E0A1E0B0E095
:1013B000911102C0B0E0A0E0F9013196AE0FBF1F5D
:1013C0008B2C912CBB2009F461C05401EFEFAE1AB5
:1013D000BE0AAA0DBB1DFA161B0619F014F04F2DFC
:1013E0004A1B511188C0E3FC59C07601A42FB0E21A
:1013F000A1114FC0C40ED11C992309F45BC040E079
:10140000D6011196F60190836D01552309F448C069
:10141000012F060F9A81582F507184FF03C091331A
:1014200009F4015010160CF047C0093008F008E02C
:10143000EEE2FE2E5B01A01AB10885019194819421
:1014400091082F3F320729F4D601FC92F60131961C
:101450006F016217730794F1021713077CF5DB0124
:10146000A21BB30BAA24A394B12CAC0EBD1EAA0DD3
:10147000BB1D11968C9121503109D601119628156A
:101480003905F4F0F60180836D01DBCFB12CA12C7E
:10149000A0CFF701B1937F01A150AACF9111B0CF96
:1014A000D601942F50E302C05D9391509111FCCF6F
:1014B000C40ED11C40E0ACCF01E0BACF80E3DBCF5B
:1014C0006217730731F4963388F4953311F455237A
:1014D00069F0F6018083FD01842F90E2811108C03C
:1014E000A40FB11D1C9290E080E002CF81E3F1CF08
:1014F00091938150F3CF911183CF8ACF283008F098
:1015000027E03327DA01990F311D87FD916000969E
:101510006105710539F432602E5F3D9330E32A9501
:10152000E1F708959F3F30F080387105610509F0BB
:101530003C5F3C5F3D93913008F08068911DDF93E4
:10154000CF931F930F93FF92EF92192F987F969549
:10155000E92F96959695E90FFF27EE53FF4F9927B0
:101560003327EE24FF24A701E70105900894079490
:1015700028F4360FE71EF81E491F511D660F771F0E
:10158000881F991F0694A1F70590079428F4E70E89
:10159000F81E491F561FC11D770F881F991F661F10
:1015A0000694A1F70590079428F4F80E491F561FDA
:1015B000C71FD11D880F991F661F771F0694A1F7BB
:1015C0000590079420F4490F561FC71FD81F990F85
:1015D000661F771F881F0694A9F7849110951770CE
:1015E00041F0D695C79557954795F794E7941A9586
:1015F000C1F7E8E6F0E06894159015913591659192
:10160000959105907FE27395E118F10A430B560B13
:10161000C90BD009C0F7E10CF11E431F561FC91FAB
:10162000D01D7EF4703311F48A95E6CFE894015012
:1016300030F0080F0AF40027021708F4202F239532
:10164000022F7A3328F079E37D932A95E9F710C0C9
:101650007D932A9589F60694979567953795179502
:101660001794E118F10A430B560BC90BD00998F0F7
:1016700023957E9173957A3308F070E37C93201361
:10168000B8F77E9170617D9330F0839571E37D931F
:1016900070E32A95E1F71124EF90FF900F911F91CD
:1016A000CF91DF91992787FD90950895E89409C01F
:1016B00097FB3EF490958095709561957F4F8F4F85
:1016C0009F4F9923A9F0F92F96E9BB279395F6959B
:1016D000879577956795B795F111F8CFFAF4BB0F19
:1016E00011F460FF1BC06F5F7F4F8F4F9F4F16C07D
:1016F000882311F096E911C0772321F09EE8872F07
:10170000762F05C0662371F096E8862F70E060E0C2
:101710002AF09A95660F771F881FDAF7880F96953B
:10172000879597F908950E94A60B0C94170C0E94B8
:10173000090C38F00E94100C20F0952311F00C9445
:10174000000C0C94060C11240C944B0C0E94280CD9
:1017500070F3959FC1F3950F50E0551F629FF00104
:10176000729FBB27F00DB11D639FAA27F00DB11D1D
:10177000AA1F649F6627B00DA11D661F829F2227A6
:10178000B00DA11D621F739FB00DA11D621F839F2D
:10179000A00D611D221F749F3327A00D611D231F03
:1017A000849F600D211D822F762F6A2F11249F5751
:1017B00050409AF0F1F088234AF0EE0FFF1FBB1F54
:1017C000661F771F881F91505040A9F79E3F510513
:1017D00080F00C94000C0C944B0C5F3FE4F3983EAB
:1017E000D4F3869577956795B795F795E7959F5FBD
:1017F000C1F7FE2B880F911D9695879597F908954F
:1018000097F99F6780E870E060E008959FEF80ECB3
:10181000089500240A941616170618060906089556
:1018200000240A9412161306140605060895092EBC
:101830000394000C11F4882352F0BB0F40F4BF2B2B
:1018400011F460FF04C06F5F7F4F8F4F9F4F08956B
:1018500057FD9058440F551F59F05F3F71F0479561
:10186000880F97FB991F61F09F3F79F08795089546
:10187000121613061406551FF2CF4695F1DF08C065
:10188000161617061806991FF1CF86957105610582
:1018900008940895E894BB2766277727CB0197F92A
:1018A00008952F923F924F925F926F927F928F9204
:1018B0009F92AF92BF92CF92DF92EF92FF920F93DF
:1018C0001F93CF93DF93CDB7DEB7CA1BDB0B0FB6E9
:1018D000F894DEBF0FBECDBF09942A8839884888A6
:1018E0005F846E847D848C849B84AA84B984C8843C
:1018F000DF80EE80FD800C811B81AA81B981CE0F33
:10190000D11D0FB6F894DEBF0FBECDBFED01089517
:101910005058BB27AA270E94A00C0C94170C0E94B9
:10192000090C38F00E94100C20F039F49F3F19F494
:1019300026F40C94060C0EF4E095E7FB0C94000CD6
:10194000E92F0E94280C58F3BA176207730784071F
:10195000950720F079F4A6F50C944A0C0EF4E09566
:101960000B2EBA2FA02D0B01B90190010C01CA0159
:10197000A0011124FF27591B99F0593F50F4503E04
:1019800068F11A16F040A22F232F342F4427585FF6
:10199000F3CF469537952795A795F0405395C9F70E
:1019A0007EF41F16BA0B620B730B840BBAF09150C6
:1019B000A1F0FF0FBB1F661F771F881FC2F70EC065
:1019C000BA0F621F731F841F48F487957795679538
:1019D000B795F7959E3F08F0B0CF9395880F08F024
:1019E0009927EE0F9795879508950E94090D0C94FD
:1019F000170C0E94100C58F00E94090C40F029F4BA
:101A00005F3F29F00C94000C51110C944B0C0C947A
:101A1000060C0E94280C68F39923B1F3552391F327
:101A2000951B550BBB27AA2762177307840738F04D
:101A30009F5F5F4F220F331F441FAA1FA9F335D0AA
:101A40000E2E3AF0E0E832D091505040E695001C5E
:101A5000CAF72BD0FE2F29D0660F771F881FBB1F18
:101A6000261737074807AB07B0E809F0BB0B802DF6
:101A7000BF01FF2793585F4F3AF09E3F510578F022
:101A80000C94000C0C944B0C5F3FE4F3983ED4F3A1
:101A9000869577956795B795F7959F5FC9F7880FF6
:101AA000911D9695879597F90895E1E0660F771F48
:101AB000881FBB1F621773078407BA0720F0621BD9
:101AC000730B840BBA0BEE1F88F7E0950895EE0FA9
:101AD000FF1F0590F491E02D09940F931F93CF936E
:101AE000DF938230910510F482E090E0E0915D0296
:101AF000F0915E0230E020E0B0E0A0E0309799F491
:101B00002115310509F44AC0281B390B2430310551
:101B1000D8F58A819B816115710589F1FB01938359
:101B20008283FE0111C040815181028113814817D7
:101B30005907E0F04817590799F4109761F0129689
:101B40000C93129713961C933296CF01DF91CF918D
:101B50001F910F91089500935D0210935E02F4CFE0
:101B60002115310551F04217530738F0A901DB0167
:101B70009A01BD01DF01F801C1CFEF01F9CF9093C8
:101B80005E0280935D02CDCFFE01E20FF31F8193D1
:101B900091932250310939832883D7CF20915B025A
:101BA00030915C02232B41F4209104013091050116
:101BB00030935C0220935B0220910201309103017B
:101BC0002115310541F42DB73EB7409106015091E2
:101BD0000701241B350BE0915B02F0915C02E217D8
:101BE000F307A0F42E1B3F0B2817390778F0AC0140
:101BF0004E5F5F4F2417350748F04E0F5F1F50931D
:101C00005C0240935B02819391939FCFF0E0E0E010
:101C10009CCFCF93DF930097E9F0FC0132971382BA
:101C20001282A0915D02B0915E02ED0130E020E0F1
:101C30001097A1F420813181820F931F20915B02C4
:101C400030915C022817390709F061C0F0935C02FB
:101C5000E0935B02DF91CF910895EA01CE17DF0791
:101C6000E8F54A815B819E0141155105B1F7E90113
:101C7000FB83EA8349915991C40FD51FEC17FD07E7
:101C800061F4808191810296840F951FE901998307
:101C90008883828193819B838A83F0E0E0E01296BF
:101CA0008D919C9113970097B9F52D913C911197C7
:101CB000CD010296820F931F20915B0230915C024E
:101CC0002817390739F6309751F510925E021092B5
:101CD0005D02B0935C02A0935B02BCCFD383C2834E
:101CE00040815181840F951FC817D90761F44E5F59
:101CF0005F4F88819981480F591F518340838A81A2
:101D00009B81938382832115310509F0B0CFF09335
:101D10005E02E0935D029ECFFD01DC01C0CF138225
:101D20001282D7CFB0E0A0E0E8E9FEE00C94530CBB
:101D30008C01009751F4CB010E946D0D8C01C801FC
:101D4000CDB7DEB7E0E10C946F0CFC01E60FF71F96
:101D50009C0122503109E217F30708F49DC0D90114
:101D6000CD91DC911197C617D70798F0C530D105F2
:101D700030F3CE0104978617970708F3C61BD70BDD
:101D80002297C193D1936D937C93CF010E94090E4A
:101D9000D6CF5B01AC1ABD0A4C018C0E9D1EA091E2
:101DA0005D02B0915E02512C412CF12CE12C109778
:101DB00031F580915B0290915C028815990509F0DC
:101DC0005CC04616570608F058C0809102019091F9
:101DD0000301009741F48DB79EB7409106015091E1
:101DE0000701841B950BE817F90708F055C0F0931D
:101DF0005C02E0935B02F90171836083A0CF8D9157
:101E00009C91119712966C90129713967C90139751
:101E1000A815B90559F56C0142E0C40ED11CCA14CD
:101E2000DB0420F1AC014A195B09DA01129615971F
:101E300080F06282738251834083D9016D937C93D9
:101E4000E114F10471F0D7011396FC93EE9312970D
:101E500076CF22968C0F9D1FF90191838083F30129
:101E6000EFCFF0935E02E0935D0269CF481659060A
:101E700008F42C017D01D3019ACFCB010E946D0D96
:101E80007C01009749F0AE01B8010E944F0FC801D4
:101E90000E94090E870153CF10E000E050CFFB01F4
:101EA000DC0102C001900D9241505040D8F70895D6
:101EB000FB01DC0101900D920020E1F7089510E094
:101EC000CFEDD0E004C0FE010E94670D2196C03E18
:081ED000D107C9F7F894FFCF18
:101ED800010000005F02800000000000CD012D011C
:101EE8005A011A028B0169017D01000000003C03C0
:101EF8002D01CF033B039803AE0323030D0A0023F0
:041F0800002A0000AB
:00000001FF
